:020000040800F2
:10280000D8130020892900088739000835370008C7
:10281000A1380008412C00085B57000800000000A8
:102820000000000000000000000000002348000835
:1028300071320008000000002D3A0008F549000838
:10284000A3290008A3290008A3290008A329000838
:10285000A3290008A3290008A3290008A329000828
:10286000A3290008A3290008A3290008A329000818
:10287000A3290008A3290008A3290008A329000808
:10288000A3290008A3290008A3290008A3290008F8
:10289000A3290008A3290008A3290008A3290008E8
:1028A000A3290008DD4C0008A3290008A32900087B
:1028B000F94C0008A3290008314D0008A32900089D
:1028C000A3290008A3290008A3290008A3290008B8
:1028D000A329000881520008A3290008D553000845
:1028E000A3290008A3290008A329000800F002F882
:1028F00000F03AF80AA090E8000C82448344AAF160
:102900000107DA4501D100F02FF8AFF2090EBAE85D
:102910000F0013F0010F18BFFB1A43F00103184713
:10292000503D0000703D0000103A24BF78C878C1C7
:10293000FAD8520724BF30C830C144BF04680C60C5
:10294000704700000023002400250026103A28BF0D
:1029500078C1FBD8520728BF30C148BF0B60704711
:102960001FB51FBD10B510BD00F0D1F81146FFF71F
:10297000F7FF03F089FB00F0EFF803B4FFF7F2FF75
:1029800003BC02F0ECFE00000948804709480047FC
:10299000FEE7FEE7FEE7FEE7FEE7FEE7FEE7FEE70F
:1029A000FEE7FEE704480549054A064B704700006C
:1029B000F9490008ED280008D80D0020D8130020A0
:1029C000D80F0020D80F00207047032A40F2308033
:1029D00010F0030C00F0158011F8013BBCF1020F60
:1029E000624498BF11F801CB00F8013B38BF11F8E1
:1029F000013BA2F1040298BF00F801CB38BF00F8F8
:102A0000013B11F0030300F05080083AC0F0088049
:102A100051F8043B083A51F804CBA0E80810F5E758
:102A2000121D5CBF51F8043B40F8043BAFF300803B
:102A3000D20724BF11F8013B11F801CB48BF11F8B0
:102A4000012B24BF00F8013B00F801CB48BF00F880
:102A5000012B70474FF0000200B51346944696468E
:102A6000203922BFA0E80C50A0E80C50B1F12001A1
:102A7000BFF4F7AF090728BFA0E80C5048BF0CC04F
:102A80005DF804EB890028BF40F8042B08BF7047AD
:102A900048BF20F8022B11F0804F18BF00F8012B1F
:102AA0007047704770477047704710B5203AC0F0C4
:102AB0000B80B1E81850203AA0E81850B1E818503F
:102AC000A0E81850BFF4F5AF5FEA027C24BFB1E87C
:102AD0001850A0E8185044BF18C918C0BDE81040ED
:102AE0005FEA827C24BF51F8043B40F8043B08BFF6
:102AF0007047D20728BF31F8023B48BF11F8012BBD
:102B000028BF20F8023B48BF00F8012B70477546EC
:102B100000F028F8AE4605006946534620F007004D
:102B2000854618B020B5FFF73DFFBDE820404FF0C7
:102B300000064FF000074FF000084FF0000B21F0A7
:102B40000701AC46ACE8C009ACE8C009ACE8C00974
:102B5000ACE8C0098D4670470446AFF300802046BC
:102B6000FFF70BFF00487047740D002008B50121E6
:102B7000042000F07DFF002240F225511D4802F0A4
:102B800052FD10208DF8030003208DF802004FF451
:102B90000060ADF8000010208DF80300694616486B
:102BA00000F02BFC4FF48050ADF8000010208DF8A1
:102BB00003006946104800F020FC4FF48070ADF827
:102BC000000004208DF8030069460B4800F015FC56
:102BD00000200A4908600A49C1F8B001012240F208
:102BE0002551044802F01FFD012004498C3908607A
:102BF00008BD00000038014000080140AC0121423E
:102C00000000214270B506460C464FF47A7502E08A
:102C1000012003F013FA2800A5F101018DB203D0C1
:102C2000064800680028F3D015B94FF6FF7070BD54
:102C3000E1B2304602F0B2FB00BFF8E720012142CA
:102C400000BFFEE710B50024002000F0F9FC0446A8
:102C5000012C34D14007C06A40B901204107C86245
:102C60004007C06940F48070C86153E04048007874
:102C7000401C3F49087008460078012806D0022809
:102C800009D003280CD0042814D10EE00021012023
:102C900000F008FE12E00121084600F003FE0DE0FE
:102CA0000221012000F0FEFD08E00021084600F0AE
:102CB000F9FD03E000202E49087000BF2AE0022C35
:102CC00028D100202107C8620846C06920F480701E
:102CD000C8610846C06920F00100C8610846C069A3
:102CE00020F00200C8610846C06920F00400C861F5
:102CF0000846C06920F00800C8610846C06920F095
:102D00001000C8610846C06920F02000C86100209A
:102D1000174908704FF00050C06A012827D10020E1
:102D2000144908801448006808B313480068042850
:102D30001DD800F0CDFFD0B10F49087800F0DAFFC0
:102D400000204FF00051C1F890000846C06920F003
:102D50000800C8610846C06920F01000C861084634
:102D6000C06920F02000C861002000F09DFF10BD68
:102D7000910400208404002090000020002000BF67
:102D800005E00021054A22F81010411C88B2B0F578
:102D9000007FF6DB0021024A118070470405002005
:102DA0006804002010B500200F4908804FF0005043
:102DB000C06BB8B10021042003F0CEF8002105203B
:102DC00003F0CAF80021062003F0C6F800204FF0F7
:102DD0000051C8630021072003F0BEF8002108203D
:102DE00003F0BAF810BD00008404002010B50020E4
:102DF0000F4908804FF00050C06B012816D0012108
:102E0000042003F0A9F80021052003F0A5F8002113
:102E1000062003F0A1F801204107C8630121072023
:102E200003F09AF80121082003F096F810BD000085
:102E30008404002010B50020134908804FF0005092
:102E4000006CF8B10021072003F086F8002108206B
:102E500003F082F800BF01F03BF90028FBD102200B
:102E600001F07EFB0021042003F076F8002105200C
:102E700003F072F80021062003F06EF800204FF0F6
:102E80000051086410BD00008404002010B500202B
:102E9000134908804FF00050006C01281ED001211A
:102EA000072003F059F80121082003F055F800BF6E
:102EB00001F00EF90028FBD1012001F051FB0121A6
:102EC000042003F049F80021052003F045F8002113
:102ED000062003F041F801204107086410BD0000FE
:102EE0008404002010B50020214908804FF00050D4
:102EF000406C022837D00021072003F02DF8012173
:102F0000082003F029F800BF01F0E2F80028FBD107
:102F10004FF000508069012804D10121154801F0CB
:102F2000DFFA11E04FF000508069022804D102213D
:102F3000114801F0D5FA07E04FF0005080690328EE
:102F400002D1042001F00CFB0121042003F004F85D
:102F50000021052003F000F80121062002F0FCFF0B
:102F600002200107486401204107886310BD00006A
:102F7000840400202A6400085264000810B5002070
:102F8000214908804FF00050806BC0B3002107201A
:102F900002F0E2FF0021082002F0DEFF00BF01F096
:102FA00097F80028FBD14FF000508069012804D128
:102FB0000121164801F094FA11E04FF000508069A9
:102FC000022804D10221124801F08AFA07E04FF0EA
:102FD00000508069032802D1022001F0C1FA0021CB
:102FE000042002F0B9FF0021052002F0B5FF002106
:102FF000062002F0B1FF00204FF00051886300204E
:103000004FF00051486410BD840400203E64000865
:103010006664000810B500201F4908804FF000507A
:10302000806B012837D00121072002F095FF012194
:10303000082002F091FF00BF01F04AF80028FBD100
:103040004FF000508069012804D10121134801F09C
:1030500047FA11E04FF000508069022804D10221A4
:103060000F4801F03DFA07E04FF000508069032857
:1030700002D1012001F074FA0121042002F06CFF5A
:103080000021052002F068FF0021062002F064FF05
:1030900001204107886310BD8404002034640008C7
:1030A0005C64000810B50020204908804FF00050F3
:1030B000406C012836D00121072002F04DFF00218D
:1030C000082002F049FF00BF01F002F80028FBD100
:1030D0004FF000508069012804D10121144801F00B
:1030E000FFF910E04FF000508069022804D102215E
:1030F000104801F0F5F906E04FF000508069032810
:1031000001D101F02DFA0121042002F025FF012157
:10311000052002F021FF0021062002F01DFF012002
:103120004107486401204107886310BD84040020E2
:10313000206400084864000810B54FF48061C8049A
:10314000FFF788FC00F060FB3EA14FF000500968DB
:1031500001603DA10968416000204FF00051C86145
:1031600008620846C0684FF6FF71884202D301200A
:103170004107C8604FF0005040690A2804D84FF05A
:1031800000504069022803D206204FF000514861E8
:103190004FF000504069801E2C4901EB80014FF038
:1031A000005009688160006D20B14FF00050006D43
:1031B000032802D30220010708652548008800F48F
:1031C0007F40B0F57F4F07D021480078FF2803D01B
:1031D0004FF00050406D10B90220010748650220F1
:1031E000010708650007006D012806D119481A4932
:1031F00008601A481A4908600DE04FF00050006D51
:10320000022808D113481449086016481449086078
:1032100015481649086000204FF000518863486443
:10322000C8630864C86201208865022048620020E3
:10323000886248668866C86608670549383108604C
:1032400010BD00006B7A7100332E35004A04002057
:1032500054000020853B0008400400209D500008D9
:103260003C0400209D510008553600088C040020C5
:10327000704710B500214FF000525269022A01D167
:1032800001211CE04FF000525269032A01D10221B2
:1032900015E04FF000525269042A01D103210EE0DB
:1032A0004FF000525269052A01D1022107E04FF088
:1032B00000525269062A01D1022100E00021322881
:1032C00007D10207D2694B1E01249C402243030709
:1032D000DA61642807D1C206D2694B1E01249C40E2
:1032E000A243C306DA6110BD30B5044604254FF48D
:1032F000302000F06FF80546042D17D10C48006906
:1033000040F002000A49086108464461006940F043
:10331000400008614FF4302000F05CF80546044896
:10332000006941F6FD71084001490861284630BD39
:103330000020024004200B49C96801F0010109B1D5
:1033400001200EE00749C96801F0040109B102201B
:1033500007E00449C96801F0100109B1032000E049
:1033600004207047002002400348006940F08000BC
:1033700001490861704700000020024070B5044612
:103380000D460426F00200F025F80646042E11D161
:103390000948006940F00100074908612580F002F2
:1033A00000F018F806460448006941F6FE7108402E
:1033B00001490861304670BD0020024002480349BF
:1033C0004860034848607047230167450020024079
:1033D000AB89EFCD00B502460423FFF7ABFF0346F0
:1033E00003E0FFF7A7FF0346521E012B01D1002A7D
:1033F000F7D102B90523184600BD2DE9F041024678
:1034000000250026002000230024002791F803C097
:103410000CF00F0591F803C00CF0100CBCF1000F7C
:1034200003D091F802C04CEA050591F800C0BCF148
:10343000000F31D0146800202BE04FF0010C0CFA83
:1034400000F3B1F800C00CEA03069E4220D18300CD
:103450004FF00F0C0CFA03F7BC4305FA03FC4CEADF
:10346000040491F803C0BCF1280F06D14FF0010C01
:103470000CFA00FCC2F814C00AE091F803C0BCF1D9
:10348000480F05D14FF0010C0CFA00FCC2F810C037
:10349000401C0828D1D31460B1F800C0BCF1FF0F64
:1034A00034DD546800202EE000F1080C4FF00108D4
:1034B00008FA0CF3B1F800C00CEA03069E4221D1D1
:1034C00083004FF00F0C0CFA03F7BC4305FA03FC22
:1034D0004CEA040491F803C0BCF1280F05D100F1B7
:1034E000080C08FA0CF8C2F8148091F803C0BCF17B
:1034F000480F07D100F1080C4FF0010808FA0CF84A
:10350000C2F81080401C0828CED35460BDE8F0817A
:10351000F0B50A46002300240021002500F00046F3
:10352000B6F1004F02D11D4EF16901E01B4E7168EA
:10353000C0F3034583B200F44016B6F5401F08D12E
:1035400021F07061154E766826F07066134F7E602C
:1035500012E000F48016B6F5801F06D1032606FAA5
:1035600005F4A14341F0706106E0460D360103FA0F
:1035700006F6B14341F0706122B1460D360103FAFF
:1035800006F6314300F00046B6F1004F02D1034E7B
:10359000F16101E0014E7160F0BD000000000140EA
:1035A000416170470161704713490988642904DA51
:1035B0001249114A1288885C05E000210E4A1180E8
:1035C0000E491288885C00210D4A11600B4A0A4B93
:1035D0001B88D1540B49098821B10A490988491E21
:1035E000084A11800121064A116003490988491CD3
:1035F000014A11807047000030040020A004002020
:103600009401274238040020F0B50B46FF24FF2523
:1036100009E010F8016B86EA0401074E765C86EA41
:103620000504064E755C1E00A3F10107BBB2F0D184
:1036300014705570F0BD00007064000870650008DB
:103640000146034A10780022014B1A7070470000AF
:1036500090040020F8B50446002500262078FF28B5
:1036600007D16078FF2804D1A079617940EA01256B
:1036700000E0F8BDE81D81B26A462046FFF7C4FFAE
:103680009DF80010E81D205C814206D19DF80110D4
:1036900005F10800205C814200D0EAE7E078A178DB
:1036A00040EA01264FF00050C068B04205D02079B2
:1036B000062839DB2079082836DC00201C490880E0
:1036C00020790A282AD2DFE800F02905090D111512
:1036D000191D2125204602F045F824E0204602F07D
:1036E00019F920E0204602F07DF91CE0204602F0A6
:1036F000BFF918E0204602F02DFA14E0204602F04F
:10370000DFFA10E0204602F03DFB0CE0204602F01C
:103710005BFB08E0204602F0B9FB04E020790521BC
:1037200000F090FF00BF00E0A3E700BFA1E70000AA
:103730008404002000BFFEE74CF6CC40014908603D
:10374000704700000030004010B500F013F810BDC5
:1037500070B505460C4645F2555000F01FF8284656
:1037600000F010F8204600F013F800F003F8FFF71F
:10377000E3FF70BD4AF6AA200149086070470000C7
:1037800000300040014948607047000000300040B0
:10379000014988607047000000300040014908601E
:1037A00070470000003000401348006890B913488B
:1037B0000078F8B912480078401C11490870084692
:1037C0000078502816DB02200E49087001200B49B2
:1037D00008700FE00A480078012806DD08480078E4
:1037E000502802DA012007490870002004490870B7
:1037F00002490870704700000881214293040020AC
:10380000920400209004002000B54FF400721105CE
:103810000A4800F06BFF00200CE0810001F100512C
:103820000968491C21B90022810001F100510A6098
:10383000411C88B2FF28F0DD00BD000000FC00083C
:1038400000B54FF400720249024800F04FFF00BD7E
:103850000405002000EC000800B54FF40072024996
:10386000024800F043FF00BD0405002000F40008FA
:1038700000B54FF400720249024800F037FF00BD66
:103880000405002000F8000800B54FF4007202495A
:10389000024800F02BFF00BD0405002000F00008E6
:1038A00000BFFEE770B505460C464FF0005040697A
:1038B00003280ED1012D09D1012C02D1FFF772FA94
:1038C0005AE0022C58D1FFF791FA55E0FFF76AFA57
:1038D00052E04FF000504069022811D1012D0CD167
:1038E000012C02D1FFF7DEFB46E0022C02D1FFF7EC
:1038F000F9FA41E0FFF78EFB3EE0FFF73FFB3BE0CC
:103900004FF000504069042811D1012D0CD1012C39
:1039100002D1FFF78FFA2FE0022C02D1FFF7B6FA9F
:103920002AE0FFF7B3FA27E0FFF784FA24E04FF02C
:1039300000504069052811D1012D0CD1012C02D174
:10394000FFF754FA18E0022C02D1FFF72BFA13E02C
:10395000FFF74CFA10E0FFF725FA0DE04FF00050AA
:103960004069062808D1284602F0B6FC642002F01F
:1039700065FB204602F010FD4FF00050006A4FF04A
:103980000051C86170BD704710B54FF4A06000F0E1
:1039900039F810BD70B5002100230F22C47804B39C
:1039A000154C246804F4E064C4F5E064210AC1F114
:1039B0000403CA40447804FA03F184781440214394
:1039C00009010E4C0678A155047804F01F05012466
:1039D000AC4005786D11AD0005F1E025C5F800415A
:1039E00009E0047804F01F050124AC40044D06787A
:1039F000761145F8264070BD0CED00E000E400E0D3
:103A000080E100E002490143024A11607047000072
:103A10000000FA050CED00E0024A0A400243024BA6
:103A20001A60704780FFFF1F08ED00E0704700003C
:103A300029B1064AD2690243044BDA6104E0034A21
:103A4000D2698243014BDA617047000000100240E6
:103A500029B1064A12690243044B1A6104E0034A81
:103A600012698243014B1A61704700000010024046
:103A700029B1064A92690243044B9A6104E0034A61
:103A800092698243014B9A61704700000010024026
:103A900029B1064AD2680243044BDA6004E0034AC3
:103AA000D2688243014BDA60704700000010024088
:103AB00030B500210022002400232D4D6D6805F053
:103AC0000C0121B1042905D0082923D105E0294D95
:103AD000056022E0274D05601FE0254D6D6805F467
:103AE0007012234D6D6805F48034022505EB924277
:103AF0001CB9214D554305600BE01D4D6D6805F463
:103B000000351DB11C4D5543056002E0194D55436C
:103B1000056002E0174D056000BF00BF144D6D68E1
:103B200005F0F0010909154D6B5C0568DD40456045
:103B30000F4D6D6805F4E061090A104D6B5C456836
:103B4000DD4085600A4D6D6805F46051C90A0B4D72
:103B50006B5C4568DD40C560054D6D6805F440410E
:103B6000890B074D6B5CC568B5FBF3F5056130BD8E
:103B70000010024000127A0000093D0014040020E9
:103B80002404002010B511480088642816DA104873
:103B900000881049104A128888540C480088401C3C
:103BA0000A4908800C480088401C0B4908800846D8
:103BB0000088642808DB0020088005E040F22551D9
:103BC0000348001F01F094FC10BD000038040020E1
:103BD00004380140A0040020320400202DE9F04107
:103BE00006460D464FF4FA6002F028FA0D480778B1
:103BF0000024002028700B480078072810DB00BF45
:103C000004E00948005D3055601CC4B205480078E6
:103C10008442F6DB034800782870002001490870D0
:103C2000BDE8F0817C0400200E0D002070B5054633
:103C30000E4601200F49086000240CE000BF40211F
:103C40000D4801F0B9FC0028F9D0295D0A4801F0BF
:103C500080FD601CC4B2B442F0DB00BF40210648C6
:103C600001F0AAFC0028F9D000200449087001499D
:103C7000086070BDB0812142004800407C040020F3
:103C80000648008830B100200549087003480088C4
:103C9000044908800020014908807047660400201C
:103CA000640400206804002010B5044621464FF04B
:103CB000804001F086F8012C03D1012003490870EF
:103CC00002E000200149087010BD000064040020DB
:103CD0000648007840B906480088052804DD002021
:103CE00003490880012070470020FCE7640400209D
:103CF0006804002010B504460E480078C8B9012CAD
:103D000002D100F0B1FD0FE0022C02D100F0A0FDC5
:103D10000AE0032C02D100F0B3FD05E0042C02D12F
:103D200000F08AFD00E000BFFFF728F801200149FC
:103D3000087010BD6404002010B51648006840B13A
:103D40004FF08040008C40F020004FF0804108840C
:103D500008E04FF08040008C4FF6DF7108404FF0D4
:103D6000804108840C48007890B14FF0804001F009
:103D700034F80A490A4A128821F8120000214FF04B
:103D8000804001F0EAF806480088401C0449088099
:103D900010BD00000401214264040020040500203D
:103DA0006604002000B589B02D482E490860012125
:103DB0000846FFF73DFE01210420FFF759FE0220CF
:103DC000ADF8200004208DF8230008A92648FFF74D
:103DD00014FB02212448FFF7E5FB4FF47A60ADF8AD
:103DE000180040F2CF20ADF814000020ADF81A0002
:103DF000ADF8160005A94FF0804001F0DDF8042071
:103E0000ADF804000220ADF806000120ADF808006E
:103E10000020ADF80A00ADF80C0001A94FF0804079
:103E200000F0F0FF1C208DF8100002208DF811002A
:103E300000208DF8120001208DF8130004A8FFF770
:103E4000A9FD01220421080701F032F801221146E0
:103E5000900701F02DF80020FFF726FF09B000BD04
:103E6000393D0008600400200008014010B5002121
:103E7000064800F0A6FF0648006820F0C00084B2A3
:103E80000348046000200349086010BD000400409E
:103E9000000C01408481214210B50024864800882E
:103EA000401C854908808548008878B90846008804
:103EB000B0F5617F09DB81480088401C7F4908809C
:103EC000FFF7D4FF00207C490880F3E07B4800889E
:103ED000012811D178480088B0F5E17FF5DB00F0CA
:103EE0000DFA76480088401C744908800020744907
:103EF000087071490880DDE07048008802285DDBA9
:103F00006E480088262859DC6D480078002843D088
:103F10006A4A1288D11ECA1701EB5272D210694B3D
:103F20009A5C664B1B88D81EC31700EB5373DB10DB
:103F3000A0EBC303C3F107031A4102F00104ACB1C3
:103F40005D480088A428C0DB5C480088262802D091
:103F500000F0D4F904E059480088401C5749088013
:103F600000205549088056490870A3E0524800884F
:103F70003628AADB51480088262802D000F0BEF976
:103F800004E04E480088401C4C49088000204A4903
:103F900008804B4908708DE047480088412894DB31
:103FA000FFF764FF45480088401C44490880012011
:103FB000434908700020404908807BE03F48008862
:103FC000272810D13C48008840F29A71884271DB62
:103FD00000F094F939480088401C384908800020D6
:103FE0003549088066E035480088282862DB334878
:103FF000008849285EDC3248007888B32F4A12884E
:10400000511FCA1701EB5272D2102E4B9A5C2B4BE8
:104010001B88581FC31700EB5373DB10A0EBC303BF
:10402000C3F107031A4102F00104D4B12248008809
:10403000A4283FDB21480088492802D000F05EF91F
:1040400008E00020204908700021204800F0B9FE57
:10405000FFF70CFF0020184908801949087029E073
:1040600017E015480088362824DB144800884928C2
:1040700002D000F043F906E0002013490870002147
:10408000124800F09EFE00200B4908800C49087081
:1040900010E00948008841280CDBFFF7E7FE0748DD
:1040A0000088401C0549088001200549087000204F
:1040B0000149088010BD00006E040020700400203B
:1040C00079040020040900206C040020002C014029
:1040D00001480078704700006C04002010B50024EF
:1040E00080480088401C7F4908807F48008818B1BC
:1040F0007D48008835280FD17A480088B0F5DC7FEC
:1041000009DB79480088401C77490880FFF7AEFE3C
:10411000002074490880E4E073480088012803D037
:1041200071480088362811D16E480088B0F5DC7FD0
:10413000F1DB00F0E3F86C480088401C6A49088015
:1041400000206A49087067490880CAE0664800880C
:10415000022803DB64480088322807DD62480088B3
:1041600037286FDB6048008867287FDC5F4800786D
:10417000002869D05C480088372817DA5A4A128824
:10418000D11ECA1701EB5272D210594B9A5C564B92
:104190001B88D81EC31700EB5373DB10A0EBC303BF
:1041A000C3F107031A4102F0010418E04E4A1288D5
:1041B000A2F13801CA1701EB5272D2104C4B9A5C33
:1041C000494B1B88A3F13800C31700EB5373DB1076
:1041D000A0EBC303C3F107031A4102F00104C4B109
:1041E00040480088A4287CDB3F480088322803D060
:1041F0003D480088672804D13B480088401C3A4964
:10420000088000F07BF800203649088037490870A4
:1042100067E034480088362863DB3348008832285A
:1042200003D031480088672804D12F480088401CFB
:104230002D49088000F062F800202A4908802B49A7
:1042400008704EE012E0FFE726480088412848DB6E
:10425000FFF70CFE24480088401C234908800120F9
:104260002249087000201F4908803AE01E48008853
:1042700033280ED11B480088362832DBFFF7F6FDC5
:1042800019480088401C18490880002015490880FA
:1042900027E015480088342810D11248008840F2E1
:1042A0000A2188421DDB00F029F80F480088401CD5
:1042B0000D49088000200B49088012E00A48008858
:1042C00068280ED10748008836280ADBFFF7CEFDA4
:1042D0000020084908700021074800F072FDFFF730
:1042E000C5FD10BD6E04002070040020780400207D
:1042F000040900206C040020002C014010B5074880
:10430000006820F0C00084B244F0800003490860D7
:104310000121034800F055FD10BD0000000C0140D4
:104320000004004010B525482549098830F81100DF
:1043300060B322482249098830F811004FF6FF7116
:10434000884223D01F480088401C1E4908801B4813
:104350001B49098830F811001A49098888421EDC77
:104360001749088800EBD0714910A0EB410111B941
:10437000FFF7C4FF01E0FFF779FD11480088401CFA
:104380000F49088000200F49088008E000200E49EE
:10439000087000210D4800F014FDFFF767FD084884
:1043A0000088B0F5007F08DB002007490870002175
:1043B000064800F006FDFFF759FD10BD040500207A
:1043C000700400206E0400206C040020002C0140CA
:1043D00070B58AB004463C4890FBF4F0401E85B2AC
:1043E00000263A483A4908600121C802FFF740FB1D
:1043F00001210220FFF71CFB01210820FFF738FBF9
:104400000220ADF8240010208DF8270003208DF83D
:10441000260009A92F48FEF7F0FF02212D48FFF7DB
:10442000BFF8ADF81C50ADF818600020ADF81E00C4
:10443000ADF81A0006A9284800F0BEFD7020ADF8BE
:1044400008000120ADF80A000220ADF81000681C39
:10445000032190FBF1F080B2ADF80E0002A91E48D6
:1044600000F030FD08211C4800F06AFD00211A48C8
:1044700000F0A7FC40F2CF20ADF81C000020ADF802
:104480001800ADF81E00ADF81A0006A9134800F098
:1044900093FD19208DF8040000208DF805000220FE
:1044A0008DF8060001208DF8070001A8FFF772FAC9
:1044B00001221146094800F0FBFC0021074800F0EA
:1044C00080FC0AB070BD000000A24A04993E0008BA
:1044D00074040020000C014000040040002C014046
:1044E00070B506460D46002400BF04E0305D144957
:1044F0000855601CC4B2092CF8DB00201149088063
:104500000120114908700021104800F026FD00200C
:104510000F490880012D03D10E480F49086006E0BD
:10452000022D03D10D480C49086000E070BD012147
:10453000064800F046FCFFF7E1FE00BFF6E700008A
:10454000040900206E0400206C040020002C0140AF
:1045500070040020993E000874040020DD4000082B
:1045600070B5044600250020FFF79EFB00BF05E064
:1045700000202D4921F81500681C85B2B5F5007F93
:10458000F6DB012C0DD1FFF773F96007006A20F408
:104590004070610708620846006A40F48070086253
:1045A0002DE0022C08D1FFF757F92007006A20F40C
:1045B00040702107086222E0032C0FD1FFF764F955
:1045C0004FF00050006A20F440704FF00051086234
:1045D0000846006A40F40070086210E0042C0DD117
:1045E000FFF72EF9E006006A20F44070E106086249
:1045F0000846006A40F44070086200E000BF0020F6
:104600000A49088001200A4908700021094800F081
:10461000A4FC0020084908800848094908600121D5
:10462000044800F0CEFB70BD040500206E0400209D
:104630006C040020002C0140700400202543000879
:104640007404002030B587B005460C46FF208DF875
:1046500008008DF809004FF000508089000A8DF89D
:104660000A004FF00050007B8DF80B0045F08000F1
:104670008DF80C0000208DF80D0002208DF80E0042
:1046800020128DF80F00E0B28DF8100001AA092168
:1046900002A8FEF7B9FF9DF804008DF811009DF8FF
:1046A00005008DF812000B2102A8FEF7ABFA07B047
:1046B00030BD00000B480078401C0A4908700846CD
:1046C000007864280CDB08480068401C0649086034
:1046D000084600684FF00051086100200149087049
:1046E000704700009C0400209804002030B5034669
:1046F0000C461546002207E0184600F008F824F89A
:1047000012009B1C501C82B2AA42F5DB30BD014650
:10471000088870472DE9F05F80468A461746B8F151
:10472000006F02D33348804501D3BDE8F09FFEF708
:1047300045FEA8F1006B4FEA9B25CBF34809C9F56C
:104740000074A74200DC3C464DE04FF0006101EBF5
:1047500085208A142849FFF7C9FF00260BE009EBE2
:104760000600254931F810004FF6FF71884200D04D
:1047700003E0701C86B2A642F1DB00BFA6421BDA42
:104780004FF0006101EB8520FEF7AEFD002608E04A
:104790003AF8160006EB0901174A22F81100701CBE
:1047A00086B2A642F4DB4FF0006101EB85208A144B
:1047B000114900F023F804E022465146404600F03B
:1047C0001DF8A74200D10FE06D1C4FF000090AEB65
:1047D000440AA044381B87B2B7F5007F02DD4FF4CE
:1047E000007400E03C46B0E700BFFEF7BDFD00BF2F
:1047F0009BE70000000001080E0900202DE9F041B0
:1048000005460E461746002407E036F814102846E1
:10481000FEF7B4FDAD1C601C84B2BC42F5DBBDE804
:10482000F081704710B54FF4007211050148FFF791
:1048300071FF10BD00FC000810B54FF40072024972
:104840000248FFF767FF10BD0405002000EC0008D8
:1048500010B54FF4007202490248FFF75BFF10BD2C
:104860000405002000F4000810B54FF4007202495E
:104870000248FFF74FFF10BD0405002000F80008B4
:1048800010B54FF4007202490248FFF743FF10BD14
:104890000405002000F0000807490988642904DAAB
:1048A0000649054A1288885C05E00021024A118009
:1048B00002491288885C704730040020A004002060
:1048C000064A1278521CD1B2642902DA044A505CBA
:1048D00002E00021024A505C7047000030040020D2
:1048E000A004002010B500F001F810BD0CB50020A8
:1048F000019000903348006840F4803031490860EE
:1049000000BF3048006800F4003000900198401C5F
:104910000190009818B90198B0F5A06FF1D129481D
:10492000006800F4003010B10120009001E0002088
:1049300000900098012843D12348006840F01000FF
:10494000214908600846006820F003000860084616
:10495000006840F0020008601A4840681949486041
:104960000846406848600846406840F480604860F7
:104970000846406820F47C1048600846406840F4CF
:10498000E81048600846006840F08070086000BF8A
:104990000C48006800F000700028F9D00948406811
:1049A00020F00300074948600846406840F00200D4
:1049B000486000BF0348406800F00C000828F9D1A7
:1049C0000CBD00000010024000200240042808D165
:1049D0004FF0E021096941F004014FF0E02211613C
:1049E00007E04FF0E021096921F004014FF0E022D7
:1049F000116170477047000010B51348006840F01F
:104A000001001149086008464068104908400E49F5
:104A10004860084600680E4908400B49086008468F
:104A2000006820F4802008600846406820F4FE00FA
:104A300048604FF41F008860FFF754FF4FF000609C
:104A40000449086010BD0000001002400000FFF89B
:104A5000FFFFF6FE08ED00E010B5FEF795FF01F050
:104A6000CBFA01F037FAFEF767FB49F27040FFF727
:104A7000AFFCFFF797F94FF4E13000F031FCFEF79F
:104A800075F800F069F94FF4165000F0C3FC4EF6CB
:104A900060210720FEF75CFE10BD0000F0B50C465B
:104AA000154600220021068C4FF6FE773E40068414
:104AB000028B018C4FF60C7632407E1C06EA031600
:104AC0002E433243104EB0420ED0104EB0420BD0A7
:104AD000B0F1804F08D00E4EB04205D00D4EB0421E
:104AE00002D00D4EB04206D14FF6FD76314044F073
:104AF0000106314305E04FF6F576314044F00106FA
:104B0000314302830184F0BD002C01400034014098
:104B10000004004000080040000C0040F0B50C46C6
:104B20001546002200210026078C4FF6EF7C07EA8D
:104B30000C070784028B018C4FF6FF7707EA0416F7
:104B400040F6FF473A404FF6FF7707EA03373A430C
:104B50004FF6FF7707EA05273A43114FB8420ED0C8
:104B6000104FB8420BD0B0F1804F08D00E4FB84272
:104B700005D00E4FB84202D00D4FB84206D14FF6C5
:104B8000DF77394046F01007394305E04FF65F778D
:104B9000394044F01007394302830184F0BD00001E
:104BA000002C014000340140000400400008004097
:104BB000000C0040F0B50C461546002200210026EE
:104BC000078C4FF6FF6C07EA0C070784828B018C79
:104BD0004FF6FF7707EA04264FF60C773A404FF678
:104BE000FF7707EA03172F433A43114FB8420ED01D
:104BF000104FB8420BD0B0F1804F08D00E4FB842E2
:104C000005D00E4FB84202D00D4FB84206D14FF634
:104C1000FF57394046F48077394305E04FF2FF579C
:104C2000394044F48077394382830184F0BD000029
:104C3000002C014000340140000400400008004006
:104C4000000C0040F0B50C4615460022002100265D
:104C5000078C4EF6FF7C07EA0C070784828B018CD9
:104C60004FF6FF7707EA043640F6FF473A404FF623
:104C7000FF7707EA05273A434FF6FF7707EA03373E
:104C80003A43114FB8420ED0104FB8420BD0B0F19A
:104C9000804F08D00E4FB84205D00E4FB84202D018
:104CA0000D4FB84206D14DF6FF77394046F4805794
:104CB000394305E047F6FF57394044F480573943FC
:104CC00082830184F0BD0000002C014000340140CB
:104CD0000004004000080040000C004010B50448EB
:104CE000006880470121034800F068F810BD00000B
:104CF00074040020002C014010B50421080700F0C6
:104D00006FF830B10948006880470421080700F0B7
:104D100055F80121880700F063F828B1FEF7B0FFCD
:104D20000121880700F04AF810BD0000600400204F
:104D300010B50121074800F053F848B100F08EF992
:104D4000FFF7B8FCFEF730FD0121024800F036F80D
:104D500010BD0000000800401FB501210420FEF72F
:104D600067FE40F2CF20ADF808004FF47A70ADF83E
:104D700004000020ADF80A00ADF8060001A90E48B5
:104D800000F01AF91E208DF8000000208DF80100B7
:104D900002208DF8020001208DF803006846FEF71E
:104DA000F9FD01221146044800F082F80121024871
:104DB00000F007F81FBD000000080040CA4302824F
:104DC000704721B1028842F00102028004E00288AB
:104DD0004FF6FE731A40028070470146088F7047F5
:104DE00030B50246002000230024158A05EA01039D
:104DF000958905EA010413B10CB1012000E00020FF
:104E000030BD000070B505460C46244885420ED0E2
:104E1000234885420BD0B5F1804F08D02148854208
:104E200005D02148854202D02048854200D100E0CB
:104E300000BF208850B92389A28861882846FFF7DF
:104E40002DFEE188284600F08AF825E02088042815
:104E50000AD12389A28861882846FFF75FFEE1888E
:104E6000284600F085F817E0208808280AD1238911
:104E7000A28861882846FFF79DFEE188284600F059
:104E800084F809E02389A28861882846FFF7DAFEC2
:104E9000E188284600F082F870BD0000002C014037
:104EA000003401400004004000080040000C0040B5
:104EB0001AB183890B43838102E083898B43838109
:104EC0007047000070B5002200230024058C4EF6C8
:104ED000FF7635400584038C8488828B48F6FF7505
:104EE0002A404FF6FF452A400D884FF6FF7606EA26
:104EF00005252A434DF6FF752B400D8906EA053539
:104F00002B434D8806EA05352B430B4DA84202D0B2
:104F10000A4DA84208D14BF6FF752C408D894FF6FB
:104F2000FF7606EA85152C4384808283CD88A0F81D
:104F30004050038470BD0000002C0140003401404B
:104F40000A460021818B4FF2FF7319404FF6FF7321
:104F500003EA022319438183704781847047028BDF
:104F60004FF6F3731A400283028B0A4302837047A1
:104F7000028B4FF2FF331A400283028B4FF6FF730E
:104F800003EA01231A4302837047828B4FF6F373BF
:104F90001A408283828B0A4382837047828B4FF24E
:104FA000FF331A408283828B4FF6FF7303EA01239B
:104FB0001A43828370470000002202881D4B9842EA
:104FC0000ED01D4B98420BD0B0F1804F08D01B4B38
:104FD000984205D01A4B984202D01A4B984204D1FD
:104FE0004FF68F731A404B881A43174B984207D0DD
:104FF000164B984204D04FF6FF431A40CB881A4311
:1050000002808B8883850B8803850A4B98420BD0DE
:10501000094B984208D00E4B984205D00D4B984250
:1050200002D00D4B984201D10B7A03860123838273
:1050300070470000002C0140003401400004004093
:1050400000080040000C0040001000400014004028
:1050500000400140004401400048014010B50D48A7
:105060000088401C0B49088008460088642810DB33
:105070000020088008480088401C0749088008462E
:1050800000881E2805DDFDF78DFEFDF777FFFDF793
:10509000D1FE10BD94040020840400202DE9F041CD
:1050A00004460F4600254FF0080800BF03E000202B
:1050B0006055681C85B2BD42F9DB334800880A2878
:1050C0005EDB002500260CE0FFF7E6FBF02804D1AC
:1050D000FFF7F6FBFE2800D105E0FEF765FA701C2D
:1050E00086B2642EF0DB00BF3AE0FEF75DFA605551
:1050F000072D30D14FF00050C06AE0B92079D0B907
:1051000060794FF000514969884204D1E078032862
:1051100001D14FF00A08E07806280CD1A07950B9E7
:10512000E0794FF000514969884202D14FF00C08F4
:1051300001E0002020704FF00050C06A01280AD121
:105140002079102807D16079022802D04FF010088A
:1051500001E04FF01008681C85B2A84500D100E0BE
:10516000C3E700BF0848008850B9002007490880FD
:10517000074908600749088001200749C1F89401E0
:105180002846BDE8F08100003804002030040020EB
:105190009401274232040020000027422DE9F0410B
:1051A00005460E46002400BF03E000202855601C81
:1051B00084B2B442F9DB00BF2A4800780028FBD053
:1051C0002948006800284AD00024002715E0FFF78E
:1051D00063FBFF2804D1FFF773FBFF2800D10EE02B
:1051E000FFF75AFBF02804D1FFF76AFBFE2800D135
:1051F00005E0FEF7D9F9781C87B2642FE7DB00BF22
:10520000002419E0FEF7D0F92855601C84B2B4429E
:1052100000D115E0FFF740FBFF2804D1FFF750FB5A
:10522000FF2800D10CE0FFF737FBFE2804D1FFF781
:1052300047FBF02800D103E00C4800880028E1D1AA
:1052400000BF0A48008850B9002009490880094970
:1052500008600949088001200849C1F894012046E6
:10526000BDE8F0813A0400202001214238040020EA
:10527000300400209401274232040020000027421D
:1052800010B540F22551134800F0A3F928B10020D1
:105290001149087011480068804740F224410D48C8
:1052A00000F097F948B101200B49087009480088BF
:1052B000C4B20848001D0088C4B240F227710548F6
:1052C00000F087F920B140F22771024800F010F990
:1052D00010BD0000003801403A04002040040020C6
:1052E00010B586B00446012144F20400FEF7C0FB6D
:1052F000284800F013F94FF40070ADF814000220B4
:105300008DF8160018208DF8170005A92248FEF721
:1053100074F84FF48060ADF8140004208DF8170085
:1053200005A91D48FEF769F825208DF8000000202A
:105330008DF801008DF8020001208DF80300684609
:10534000FEF728FB01940020ADF80800ADF80A0034
:10535000ADF80C00ADF810000C20ADF80E000021E7
:105360000C4800F0CEF801A90A4800F081F90122AA
:1053700040F22551074800F056F9012240F224413D
:10538000044800F050F90121024800F0BAF806B0D4
:1053900010BD0000003801400008014070B504460F
:1053A0000D460DB9002070BD0BE000BF80210848FC
:1053B00000F002F90028F9D020780549091D08807D
:1053C000641C2800A5F10101CDB2EED100BFEAE7CF
:1053D0000038014010B540F225510B4800F0F9F8B3
:1053E00080B1094800F0B0F9C4B2084800786428D8
:1053F00008DA074805490978445404480078401CF5
:105400000249087010BD0000004800407C040020E4
:105410000E0D002010B586B0044601210420FEF7D1
:1054200027FB01218804FEF703FB4FF48050ADF801
:10543000140010208DF8170003208DF8160005A920
:105440002848FDF7DAFF4FF48060ADF8140018200B
:105450008DF8170005A92348FDF7CFFF4FF4006032
:10546000ADF8140004208DF8170005A91D48FDF7BC
:10547000C4FF01218804FEF7EBFA00214FF48020DD
:10548000FEF7E6FA01940020ADF80800ADF80A0036
:10549000ADF80C00ADF810000C20ADF80E0001A91D
:1054A000114800F0E5F827208DF8000000208DF865
:1054B000010002208DF8020001208DF803006846EB
:1054C000FEF768FA012240F22551074800F0ABF8D8
:1054D0000121054800F015F800200449086006B0D5
:1054E00010BD0000000C014000480040B081214286
:1054F00001F40072B2F5007F00D100BFCA43028000
:10550000704721B1828942F40052828104E082898D
:105510004DF6FF731A4082817047000010B50446B3
:105520002048844209D101218803FEF7B1FA002105
:105530004FF48040FEF7ACFA32E01B48844209D1B8
:1055400001214804FEF784FA00214FF40030FEF7F1
:105550007FFA25E01548844209D101218804FEF72D
:1055600077FA00214FF48020FEF772FA18E0104815
:10557000844209D10121C804FEF76AFA00214FF4E0
:105580000020FEF765FA0BE00A48844208D10121A9
:105590000805FEF75DFA00214FF48010FEF758FA77
:1055A00010BD0000003801400044004000480040A9
:1055B000004C00400050004002460020B1F5007F42
:1055C00000D100BF13880B400BB1012000E0002088
:1055D000704770B50246002400230025002040F6E5
:1055E0006A16B14200D100BFC1F3421501F01F039A
:1055F000012606FA03F3012D02D19689334006E015
:10560000022D02D1168A334001E0968A33400C12F3
:10561000012606FA04F41688344013B10CB10120B7
:1056200000E0002070BDF0B50346002400260025F0
:10563000002040F66A17B94200D100BF1846C1F3F6
:10564000421401F01F06012707FA06F5012C01D1CB
:105650000C3004E0022C01D1103000E014301AB1FB
:1056600007682F43076002E00768AF430760F0BD9B
:105670002DE9F04786B005460E460024A24600BF3D
:10568000A1460027B08900B100BF2F462C8A4CF6F6
:10569000FF700440F08804432C82AC894EF6F3106E
:1056A0000440B08831890843718908430443AC81C0
:1056B000AC8A4FF6FF400440B0890443AC8201A895
:1056C000FEF7F6F91F48874202D1DDF810A001E08D
:1056D000DDF80CA0A88900F4004040B10AEBCA0034
:1056E00000EB0A1031684900B0FBF1F807E00AEB63
:1056F000CA0000EB0A1031688900B0FBF1F86420A1
:10570000B8FBF0F004012009642101FB1089A8898D
:1057100000F4004040B1322000EBC900B0FBF1F0D2
:1057200000F00700044308E0322000EB0910642178
:10573000B0FBF1F000F00F0004432C8106B0BDE88F
:10574000F08700000038014001468888C0F3080057
:105750007047C1F308028280704700BFFEE7014630
:1057600000BF704710B58AB00446FF208DF80800CE
:105770008DF809004FF000508089000A8DF80A006A
:105780004FF00050007B8DF80B00207940F0800036
:105790008DF80C0000208DF80D000E208DF80E0005
:1057A00000208DF80F008DF810004FF00050007DA4
:1057B0008DF81100544800788DF8120053480068A5
:1057C000000E8DF8130051480068000C8DF814008D
:1057D0004E480088000A8DF815004C4800788DF876
:1057E00016004FF0005090F824008DF817004FF08D
:1057F00000504069022815D14348203800788DF8C0
:1058000018004FF0005090F844008DF819004FF048
:105810000050007E8DF81B003B480C3000788DF85E
:105820001C005EE04FF000504069032817D1364855
:105830001C3800788DF8180000208DF819003448C5
:1058400000788DF81A004FF0005090F868008DF83D
:105850001C002D48103000788DF81C0041E04FF0FE
:1058600000504069052812D127481C3800788DF86F
:10587000180000208DF81900254800788DF81A00CE
:105880004FF0005090F868008DF81C0029E04FF0B0
:1058900000504069062811D14FF00050808F000A57
:1058A0008DF8180018481C3800788DF819004FF052
:1058B000005090F828008DF81C0012E04FF00050C6
:1058C000406904280DD11048183800788DF8180068
:1058D00000208DF819004FF0005090F86C008DF802
:1058E0001C0001AA152102A8FDF78EFE9DF80400F8
:1058F0008DF81D009DF805008DF81E00172102A8E7
:10590000FDF780F90AB010BD58000020980400206F
:105910008604002010B58AB00446FF208DF80800E8
:105920008DF809004FF000508089000A8DF80A00B8
:105930004FF00050007B8DF80B00207940F0800084
:105940008DF80C0000208DF80D000C208DF80E0055
:1059500000208DF80F008DF810004FF000504069C6
:10596000022806D10007406E10B301208DF8110007
:105970001EE04FF000504069032807D14FF000505F
:10598000806EA8B101208DF8110011E04FF0005099
:10599000406904280CD1C006C06E10B101208DF8FA
:1059A00011004FF00050006F10B101208DF8110070
:1059B0000B4800788DF8120001AA0B2102A8FDF710
:1059C00023FE9DF804008DF813009DF805008DF866
:1059D00014000D2102A8FDF715F90AB010BD000052
:1059E0002800002010B58AB00446FF208DF808007A
:1059F0008DF809004FF000508089000A8DF80A00E8
:105A00004FF00050007B8DF80B00207940F08000B3
:105A10008DF80C0000208DF80D0002208DF80E008E
:105A200000208DF80F008DF81000E0794FF0005144
:105A30004969884205D020790921FEF703FE0AB0A2
:105A400010BD617A207AFDF72DFF01AA092102A875
:105A5000FDF7DAFD9DF804008DF811009DF80500B2
:105A60008DF812000B2102A8FDF7CCF800BFE6E785
:105A7000F0B591B00446607B217B40EA01253C21D2
:105A800002A8FCF7E7FF00200190FF208DF8080036
:105A90008DF809004FF000508089000A8DF80A0047
:105AA0004FF00050007B8DF80B00207940F0800013
:105AB0008DF80C00A81C000A8DF80D00A81CC0B2BF
:105AC0008DF80E0000208DF80F008DF810002E2D9F
:105AD00000DD2E25207A0006617A40EA0140A17A95
:105AE00040EA0120E17A40EA0106E079E0B92A467D
:105AF00031460DF11100FCF768FF05F1090081B294
:105B000001AA02A8FDF780FD9DF8041005F1090027
:105B100002AA11549DF80510401C1154401C81B27A
:105B200002A8FDF76FF813E0E079012810D1A07901
:105B3000617940EA0127781F87B23A4604F10C01E7
:105B40003046FCF742FF20790021FEF77BFD00BFC5
:105B500011B0F0BD2DE9F04FFFB004464FF0000842
:105B6000002700250026A946AA46C82101A8FCF75F
:105B700071FFFF208DF8D0008DF8D1004FF000505C
:105B80008089000A8DF8D2004FF00050007B8DF81C
:105B9000D300207940F080008DF8D40000208DF8EB
:105BA000D50002208DF8D60000208DF8D7008DF8A2
:105BB000D800E07901287DD0E07900287DD1A07A55
:105BC0000006E17A40EA0140217B40EA0120617B46
:105BD00040EA0108607A217A40EA0127C82097FB51
:105BE000F0F01FFA80FAC82097FBF0F100FB11706B
:105BF00018B10AF101001FFA80FA5AE0002605E008
:105C0000002001A921F81600701C86B2642EF7DB73
:105C1000C82F04DDC825A7F1C80087B201E03D46C2
:105C20000027AB4605EBDB70C0F34F0201A94046ED
:105C3000FEF75CFD284605EBD07108EB6108A81C57
:105C4000C0B28DF8D60009F101001FFA80F909F001
:105C5000FF008DF8D9000AF0FF008DF8DA00002669
:105C60000FE001A830F81600011206F10B0034AA6B
:105C7000115401A810F8161006F10C001154701CF4
:105C800086B2AE42EDDB05F1090081B233AA34A839
:105C9000FDF7BAFC9DF8CC1034AA05F109001154A7
:105CA0009DF8CD10401C1154401C81B234A8FCF763
:105CB000A9FF00E001E0002FA0D17FB0BDE8F08F88
:105CC00010B58AB00446202102A8FCF7C3FE0020CC
:105CD0000190FF208DF808008DF809004FF000506A
:105CE0008089000A8DF80A004FF00050007B8DF883
:105CF0000B00207940F080008DF80C0000208DF81A
:105D00000D0003208DF80E0000208DF80F008DF897
:105D10001000E0794FF00051C862194800788DF802
:105D200011000846C06A28B90846C06920F480708E
:105D3000C86107E04FF00050C06940F480704FF038
:105D40000051C8619DF80E00C11D01AA02A8FDF70F
:105D50005BFC9DF804109DF80E00C01D02AA1154B2
:105D60009DF805109DF80E00083011549DF80E00A6
:105D700000F1090102A8FCF745FF0AB010BD0000C0
:105D80002C00002010B504464FF00050C06AA8B1A6
:105D9000207AE17940EA01204FF00051C860607A32
:105DA000486108464069022801D1A07A8861FEF75F
:105DB00039FD20790021FEF745FC03E02079082118
:105DC000FEF740FC10BD000010B504464FF0005037
:105DD000C06A20B920790821FEF734FC10BDE079B3
:105DE000022804D020790221FEF72CFCF6E7207A65
:105DF00001280CD10021052000F0AEF8012104207B
:105E000000F0AAF80021062000F0A6F82EE0207A83
:105E100002280CD10121052000F09EF80021042069
:105E200000F09AF80121062000F096F81EE0207A92
:105E300003280CD10121052000F08EF80021042058
:105E400000F08AF80021062000F086F80EE0207AA3
:105E500004280BD10021052000F07EF80021042049
:105E600000F07AF80121062000F076F8207A064941
:105E70000860FCF783FF0120FDF716FF2079002161
:105E8000FEF7E0FB00BFA9E79000002010B5044634
:105E9000E079022815D120790021FEF7D3FB642098
:105EA00000F0CCF800BF0948006800F4E060084941
:105EB0000843001D05490860BFF3408F00BF00BFC5
:105EC000FEE720790221FEF7BDFB10BD0CED00E0DE
:105ED0000000FA0538B5002401210846FDF7C8FD89
:105EE00001210420FDF7C4FD01210820FDF7C0FDBC
:105EF00001211648FDF70CFB14208DF80300032048
:105F00008DF80200F120ADF8000069461048FDF759
:105F100074FA4EF20100ADF8000069460D48FDF735
:105F20006CFA04208DF80300ADF8000069460948BA
:105F3000FDF763FA00BF06E0611CC8B2002100F063
:105F40000BF8601CC4B2092CF6DB38BD000230002F
:105F500000080140000C014030B5024609B9012398
:105F600000E0002318460A2A28D2DFE802F02705BD
:105F7000080C1013171B1F231D4B18601FE01C4B30
:105F80001B1D18601BE01A4B0833186017E0194BF3
:105F9000186014E0174B1B1D186010E0154B1B1FF9
:105FA00018600CE0134B0833186008E0104B343BCA
:105FB000186004E00F4B143B186000E000BF00BF06
:105FC00051B14FF000531B6A541E0125A5402B43CD
:105FD0004FF00054236209E04FF000531B6A541E37
:105FE0000125A540AB434FF00054236230BD0000B3
:105FF000B48121429401214210B56FF00400FEF7F4
:10600000E5FC0A4800680A49B0FBF1F0094908704C
:106010000846007800EB4001C1EBC0104FF6FF715D
:1060200001EAC0000449088010BD000000040020FF
:1060300000127A00280400202A0400200146114A98
:1060400012884A434FF0E0235A6100229A611A46AF
:10605000126942F001021A6100BF4FF0E02210699C
:1060600000F001021AB100F48032002AF5D04FF09E
:10607000E022126922F001024FF0E0231A610022AF
:106080009A6170472A04002090B0342103A8FCF7DD
:10609000E1FC00241BA2D2E900109268CDE90102C4
:1060A00000914FF420514FF00060FDF7B5FCFEF772
:1060B000D3FC25E01648006828B1322103A8154A10
:1060C0001268904702E000208DF80C009DF80C004B
:1060D00018B103A810490968884700F01FF832205A
:1060E000FFF7ACFF2046FDF7C4F8601C84B2642CB7
:1060F00000DD0024FCF7A6FD00F07AF8FDF724FB94
:10610000D8E700009000000A400040F0FF000000C7
:10611000200121423C0400208C0400202DE9F041A4
:106120000027002600244FF00050006A4FF0005175
:10613000C969884259D04FF00050008CC0F308065E
:106140004FF00050808BC0F3080486EA0407002556
:1061500014E00120A840384070B10120A840204040
:1061600028B1691CC8B20121FFF7F6FE04E0691CE2
:10617000C8B20021FFF7F0FE681CC5B2092DE8DBAC
:106180004FF00050008CC0F341264FF00050808B40
:10619000C0F34124A64219D034B1012C08D0022CFE
:1061A0000AD0032C10D10BE00220FEF7D9F90CE045
:1061B0000120FEF7D5F908E00320FEF7D1F904E04D
:1061C0000420FEF7CDF900E000BF00BF4FF0005003
:1061D000008CC0F3C0264FF00050808BC0F3C02469
:1061E000A64202D0E0B200F077F8BDE8F0810000EE
:1061F00000B587B037480068401C3649086008463B
:10620000006800EBC00101EB00104FF4FA61B1EB44
:10621000400F02D9002007B000BD00202D490860C2
:10622000069014216846FCF715FC03208DF8000049
:1062300004208DF8010000208DF8020001208DF867
:10624000030000208DF8040001208DF8050006AA47
:1062500006216846FDF7D8F99DF818008DF806006C
:106260009DF819008DF8070008216846FDF7DEFC4F
:1062700000208DF8000005A96846FDF7AFFC9DF8E9
:106280001400072801D00020C5E79DF81400801EE7
:1062900081B206AA6846FDF7B7F99DF805009DF89A
:1062A0001810884211D19DF806009DF819108842F7
:1062B0000BD19DF8040020B900204FF000518862F6
:1062C000A9E7012041078862A5E70220010788624B
:1062D00000BFA0E78004002010B588B0044600206D
:1062E0000590069007900290039004900190009012
:1062F00001208DF8140006208DF8150000208DF87F
:10630000160001208DF81700012C0CD1FF208DF80C
:10631000180000208DF819006007006A40F4006042
:10632000610708620CE000208DF818008DF8190054
:106330004FF00050006A20F400604FF000510862F6
:1063400001AA062105A8FDF75FF99DF804008DF864
:106350001A009DF805008DF81B00082105A8FDF71F
:1063600065FCC820FFF76AFE694602A8FDF736FC07
:10637000084800784FF00051C8630846C06B40EAF7
:106380000420C86321460420FFF7E6FD002008B082
:1063900010BD00003C00002010B588B0044600206D
:1063A0000590069007900290039004900190009051
:1063B00001208DF8140006208DF8150000208DF8BE
:1063C000160003208DF817008DF8184000208DF876
:1063D000190001AA062105A8FDF716F99DF8040089
:1063E0008DF81A009DF805008DF81B00082105A8FE
:1063F000FDF71CFCC820FFF721FE694602A8FDF747
:10640000EDFB4FF00050808F00F47F404FF00051C3
:10641000C8630846C06B2043C863002008B010BDA5
:106420003070000A4000400060009000000A400008
:106430004000A0009090048A40004000F0000090CE
:10644000000A40004000A000B24DBF40BC43000025
:106450000000B24DBF4000FF00000000B24D1FE041
:10646000D82700000000B24D7B84E01F0000000030
:1064700000C1814001C0804101C0804100C1814014
:1064800001C0804100C1814000C1814001C0804104
:1064900001C0804100C1814000C1814001C08041F4
:1064A00000C1814001C0804101C0804100C18140E4
:1064B00001C0804100C1814000C1814001C08041D4
:1064C00000C1814001C0804101C0804100C18140C4
:1064D00000C1814001C0804101C0804100C18140B4
:1064E00001C0804100C1814000C1814001C08041A4
:1064F00001C0804100C1814000C1814001C0804194
:1065000000C1814001C0804101C0804100C1814083
:1065100000C1814001C0804101C0804100C1814073
:1065200001C0804100C1814000C1814001C0804163
:1065300000C1814001C0804101C0804100C1814053
:1065400001C0804100C1814000C1814001C0804143
:1065500001C0804100C1814000C1814001C0804133
:1065600000C1814001C0804101C0804100C1814023
:1065700000C0C101C30302C2C60607C705C5C404E3
:10658000CC0C0DCD0FCFCE0E0ACACB0BC90908C853
:10659000D81819D91BDBDA1A1EDEDF1FDD1D1CDC43
:1065A00014D4D515D71716D6D21213D311D1D010B3
:1065B000F03031F133F3F23236F6F737F53534F4A3
:1065C0003CFCFD3DFF3F3EFEFA3A3BFB39F9F83813
:1065D00028E8E929EB2B2AEAEE2E2FEF2DEDEC2C03
:1065E000E42425E527E7E62622E2E323E12120E073
:1065F000A06061A163A3A26266A6A767A56564A463
:106600006CACAD6DAF6F6EAEAA6A6BAB69A9A868D2
:1066100078B8B979BB7B7ABABE7E7FBF7DBDBC7CC2
:10662000B47475B577B7B67672B2B373B17170B032
:106630005090915193535292965657975595945422
:106640009C5C5D9D5F9F9E5E5A9A9B5B9959589892
:10665000884849894B8B8A4A4E8E8F4F8D4D4C8C82
:1066600044848545874746868242438341818040F2
:106670009066000800040020A000000028290008FF
:1066800030670008A0040020380F000044290008EB
:1066900000A24A0400000000000000000102030400
:1066A00006070809000000000102030401020304B8
:1066B00006070809020406080000000000000000A8
:1066C00000000000000000000000010000000000C9
:1066D000000000000000000008006B7400006373FD
:1066E0006A006A736A006A68710079746A0000005F
:1066F000000000000000000000000000000000009A
:106700000000000000000000000000000000000089
:1067100000000000000000003075000000000000D4
:106720000000000000000000000000000000000069
:04000005080028EDDA
:00000001FF
